{
  "_format": "hh-sol-artifact-1",
  "contractName": "AIAgentFactory",
  "sourceName": "contracts/AIAgentFactory.sol",
  "abi": [
    {
      "anonymous": false,
      "inputs": [
        {
          "indexed": true,
          "internalType": "address",
          "name": "agentAddress",
          "type": "address"
        },
        {
          "indexed": true,
          "internalType": "address",
          "name": "owner",
          "type": "address"
        },
        {
          "indexed": false,
          "internalType": "string",
          "name": "name",
          "type": "string"
        }
      ],
      "name": "AgentDeployed",
      "type": "event"
    },
    {
      "inputs": [
        {
          "internalType": "string",
          "name": "name",
          "type": "string"
        }
      ],
      "name": "deployAgent",
      "outputs": [
        {
          "internalType": "address",
          "name": "",
          "type": "address"
        }
      ],
      "stateMutability": "nonpayable",
      "type": "function"
    },
    {
      "inputs": [
        {
          "internalType": "uint256",
          "name": "",
          "type": "uint256"
        }
      ],
      "name": "deployedAgents",
      "outputs": [
        {
          "internalType": "address",
          "name": "",
          "type": "address"
        }
      ],
      "stateMutability": "view",
      "type": "function"
    },
    {
      "inputs": [],
      "name": "getDeployedAgents",
      "outputs": [
        {
          "internalType": "address[]",
          "name": "",
          "type": "address[]"
        }
      ],
      "stateMutability": "view",
      "type": "function"
    }
  ],
  "bytecode": "0x608060405234801561001057600080fd5b50611a0c806100206000396000f3fe60806040523480156200001157600080fd5b5060043610620000465760003560e01c806355a1f8ac146200004b578063d33f56b1146200006d578063d79af1fc14620000a3575b600080fd5b62000055620000d9565b604051620000649190620003cc565b60405180910390f35b6200008b600480360381019062000085919062000566565b62000169565b6040516200009a9190620005c8565b60405180910390f35b620000c16004803603810190620000bb919062000620565b6200027c565b604051620000d09190620005c8565b60405180910390f35b606060008054806020026020016040519081016040528092919081815260200182805480156200015f57602002820191906000526020600020905b8160009054906101000a900473ffffffffffffffffffffffffffffffffffffffff1673ffffffffffffffffffffffffffffffffffffffff168152602001906001019080831162000114575b5050505050905090565b60008033836040516200017c90620002bc565b62000189929190620006db565b604051809103906000f080158015620001a6573d6000803e3d6000fd5b5090506000819080600181540180825580915050600190039060005260206000200160009091909190916101000a81548173ffffffffffffffffffffffffffffffffffffffff021916908373ffffffffffffffffffffffffffffffffffffffff1602179055503373ffffffffffffffffffffffffffffffffffffffff168173ffffffffffffffffffffffffffffffffffffffff167f947fc2acd4de1bbd61a5dafc0a99eb9a6be29abca00ddcce899b35961bc932f5856040516200026b91906200070f565b60405180910390a380915050919050565b600081815481106200028d57600080fd5b906000526020600020016000915054906101000a900473ffffffffffffffffffffffffffffffffffffffff1681565b6112a3806200073483390190565b600081519050919050565b600082825260208201905092915050565b6000819050602082019050919050565b600073ffffffffffffffffffffffffffffffffffffffff82169050919050565b60006200032382620002f6565b9050919050565b620003358162000316565b82525050565b60006200034983836200032a565b60208301905092915050565b6000602082019050919050565b60006200036f82620002ca565b6200037b8185620002d5565b93506200038883620002e6565b8060005b83811015620003bf578151620003a388826200033b565b9750620003b08362000355565b9250506001810190506200038c565b5085935050505092915050565b60006020820190508181036000830152620003e8818462000362565b905092915050565b6000604051905090565b600080fd5b600080fd5b600080fd5b600080fd5b6000601f19601f8301169050919050565b7f4e487b7100000000000000000000000000000000000000000000000000000000600052604160045260246000fd5b62000459826200040e565b810181811067ffffffffffffffff821117156200047b576200047a6200041f565b5b80604052505050565b600062000490620003f0565b90506200049e82826200044e565b919050565b600067ffffffffffffffff821115620004c157620004c06200041f565b5b620004cc826200040e565b9050602081019050919050565b82818337600083830152505050565b6000620004ff620004f984620004a3565b62000484565b9050828152602081018484840111156200051e576200051d62000409565b5b6200052b848285620004d9565b509392505050565b600082601f8301126200054b576200054a62000404565b5b81356200055d848260208601620004e8565b91505092915050565b6000602082840312156200057f576200057e620003fa565b5b600082013567ffffffffffffffff811115620005a0576200059f620003ff565b5b620005ae8482850162000533565b91505092915050565b620005c28162000316565b82525050565b6000602082019050620005df6000830184620005b7565b92915050565b6000819050919050565b620005fa81620005e5565b81146200060657600080fd5b50565b6000813590506200061a81620005ef565b92915050565b600060208284031215620006395762000638620003fa565b5b6000620006498482850162000609565b91505092915050565b600081519050919050565b600082825260208201905092915050565b60005b838110156200068e57808201518184015260208101905062000671565b60008484015250505050565b6000620006a78262000652565b620006b381856200065d565b9350620006c58185602086016200066e565b620006d0816200040e565b840191505092915050565b6000604082019050620006f26000830185620005b7565b81810360208301526200070681846200069a565b90509392505050565b600060208201905081810360008301526200072b81846200069a565b90509291505056fe60806040523480156200001157600080fd5b50604051620012a3380380620012a3833981810160405281019062000037919062000289565b816000806101000a81548173ffffffffffffffffffffffffffffffffffffffff021916908373ffffffffffffffffffffffffffffffffffffffff16021790555080600190816200008891906200053a565b50505062000621565b6000604051905090565b600080fd5b600080fd5b600073ffffffffffffffffffffffffffffffffffffffff82169050919050565b6000620000d282620000a5565b9050919050565b620000e481620000c5565b8114620000f057600080fd5b50565b6000815190506200010481620000d9565b92915050565b600080fd5b600080fd5b6000601f19601f8301169050919050565b7f4e487b7100000000000000000000000000000000000000000000000000000000600052604160045260246000fd5b6200015f8262000114565b810181811067ffffffffffffffff8211171562000181576200018062000125565b5b80604052505050565b60006200019662000091565b9050620001a4828262000154565b919050565b600067ffffffffffffffff821115620001c757620001c662000125565b5b620001d28262000114565b9050602081019050919050565b60005b83811015620001ff578082015181840152602081019050620001e2565b60008484015250505050565b6000620002226200021c84620001a9565b6200018a565b9050828152602081018484840111156200024157620002406200010f565b5b6200024e848285620001df565b509392505050565b600082601f8301126200026e576200026d6200010a565b5b8151620002808482602086016200020b565b91505092915050565b60008060408385031215620002a357620002a26200009b565b5b6000620002b385828601620000f3565b925050602083015167ffffffffffffffff811115620002d757620002d6620000a0565b5b620002e58582860162000256565b9150509250929050565b600081519050919050565b7f4e487b7100000000000000000000000000000000000000000000000000000000600052602260045260246000fd5b600060028204905060018216806200034257607f821691505b602082108103620003585762000357620002fa565b5b50919050565b60008190508160005260206000209050919050565b60006020601f8301049050919050565b600082821b905092915050565b600060088302620003c27fffffffffffffffffffffffffffffffffffffffffffffffffffffffffffffffff8262000383565b620003ce868362000383565b95508019841693508086168417925050509392505050565b6000819050919050565b6000819050919050565b60006200041b620004156200040f84620003e6565b620003f0565b620003e6565b9050919050565b6000819050919050565b6200043783620003fa565b6200044f620004468262000422565b84845462000390565b825550505050565b600090565b6200046662000457565b620004738184846200042c565b505050565b5b818110156200049b576200048f6000826200045c565b60018101905062000479565b5050565b601f821115620004ea57620004b4816200035e565b620004bf8462000373565b81016020851015620004cf578190505b620004e7620004de8562000373565b83018262000478565b50505b505050565b600082821c905092915050565b60006200050f60001984600802620004ef565b1980831691505092915050565b60006200052a8383620004fc565b9150826002028217905092915050565b6200054582620002ef565b67ffffffffffffffff81111562000561576200056062000125565b5b6200056d825462000329565b6200057a8282856200049f565b600060209050601f831160018114620005b257600084156200059d578287015190505b620005a985826200051c565b86555062000619565b601f198416620005c2866200035e565b60005b82811015620005ec57848901518255600182019150602085019450602081019050620005c5565b868310156200060c578489015162000608601f891682620004fc565b8355505b6001600288020188555050505b505050505050565b610c7280620006316000396000f3fe6080604052600436106100745760003560e01c80639e1a00aa1161004e5780639e1a00aa1461014f578063a6f9dae114610178578063d0e30db0146101a1578063ebb083b9146101ab576100c9565b806306fdde03146100ce57806312065fe0146100f95780638da5cb5b14610124576100c9565b366100c9573373ffffffffffffffffffffffffffffffffffffffff167f2da466a7b24304f47e87fa2e1e5a81b9831ce54fec19055ce277ca2f39ba42c4346040516100bf9190610788565b60405180910390a2005b600080fd5b3480156100da57600080fd5b506100e36101c7565b6040516100f09190610833565b60405180910390f35b34801561010557600080fd5b5061010e610255565b60405161011b9190610788565b60405180910390f35b34801561013057600080fd5b5061013961025d565b6040516101469190610896565b60405180910390f35b34801561015b57600080fd5b5061017660048036038101906101719190610920565b610281565b005b34801561018457600080fd5b5061019f600480360381019061019a919061098c565b610468565b005b6101a9610539565b005b6101c560048036038101906101c091906109b9565b610589565b005b600180546101d490610a15565b80601f016020809104026020016040519081016040528092919081815260200182805461020090610a15565b801561024d5780601f106102225761010080835404028352916020019161024d565b820191906000526020600020905b81548152906001019060200180831161023057829003601f168201915b505050505081565b600047905090565b60008054906101000a900473ffffffffffffffffffffffffffffffffffffffff1681565b60008054906101000a900473ffffffffffffffffffffffffffffffffffffffff1673ffffffffffffffffffffffffffffffffffffffff163373ffffffffffffffffffffffffffffffffffffffff161461030f576040517f08c379a000000000000000000000000000000000000000000000000000000000815260040161030690610a92565b60405180910390fd5b80471015610352576040517f08c379a000000000000000000000000000000000000000000000000000000000815260040161034990610afe565b60405180910390fd5b60008273ffffffffffffffffffffffffffffffffffffffff168260405161037890610b4f565b60006040518083038185875af1925050503d80600081146103b5576040519150601f19603f3d011682016040523d82523d6000602084013e6103ba565b606091505b50509050806103fe576040517f08c379a00000000000000000000000000000000000000000000000000000000081526004016103f590610bb0565b60405180910390fd5b8273ffffffffffffffffffffffffffffffffffffffff163073ffffffffffffffffffffffffffffffffffffffff167f5ec30446906691a2bfe7c6e11e78243f1815aa5ff756e24ec44521ae286f82358460405161045b9190610788565b60405180910390a3505050565b60008054906101000a900473ffffffffffffffffffffffffffffffffffffffff1673ffffffffffffffffffffffffffffffffffffffff163373ffffffffffffffffffffffffffffffffffffffff16146104f6576040517f08c379a00000000000000000000000000000000000000000000000000000000081526004016104ed90610a92565b60405180910390fd5b806000806101000a81548173ffffffffffffffffffffffffffffffffffffffff021916908373ffffffffffffffffffffffffffffffffffffffff16021790555050565b3373ffffffffffffffffffffffffffffffffffffffff167f2da466a7b24304f47e87fa2e1e5a81b9831ce54fec19055ce277ca2f39ba42c43460405161057f9190610788565b60405180910390a2565b60008054906101000a900473ffffffffffffffffffffffffffffffffffffffff1673ffffffffffffffffffffffffffffffffffffffff163373ffffffffffffffffffffffffffffffffffffffff1614610617576040517f08c379a000000000000000000000000000000000000000000000000000000000815260040161060e90610a92565b60405180910390fd5b6000341161065a576040517f08c379a000000000000000000000000000000000000000000000000000000000815260040161065190610c1c565b60405180910390fd5b60008173ffffffffffffffffffffffffffffffffffffffff163460405161068090610b4f565b60006040518083038185875af1925050503d80600081146106bd576040519150601f19603f3d011682016040523d82523d6000602084013e6106c2565b606091505b5050905080610706576040517f08c379a00000000000000000000000000000000000000000000000000000000081526004016106fd90610bb0565b60405180910390fd5b8173ffffffffffffffffffffffffffffffffffffffff163073ffffffffffffffffffffffffffffffffffffffff167ffd37b6e6d25e1bf039600a3da2c0fdaf7fce97b46eb9dabc048236666bbaa3f2346040516107639190610788565b60405180910390a35050565b6000819050919050565b6107828161076f565b82525050565b600060208201905061079d6000830184610779565b92915050565b600081519050919050565b600082825260208201905092915050565b60005b838110156107dd5780820151818401526020810190506107c2565b60008484015250505050565b6000601f19601f8301169050919050565b6000610805826107a3565b61080f81856107ae565b935061081f8185602086016107bf565b610828816107e9565b840191505092915050565b6000602082019050818103600083015261084d81846107fa565b905092915050565b600073ffffffffffffffffffffffffffffffffffffffff82169050919050565b600061088082610855565b9050919050565b61089081610875565b82525050565b60006020820190506108ab6000830184610887565b92915050565b600080fd5b60006108c182610855565b9050919050565b6108d1816108b6565b81146108dc57600080fd5b50565b6000813590506108ee816108c8565b92915050565b6108fd8161076f565b811461090857600080fd5b50565b60008135905061091a816108f4565b92915050565b60008060408385031215610937576109366108b1565b5b6000610945858286016108df565b92505060206109568582860161090b565b9150509250929050565b61096981610875565b811461097457600080fd5b50565b60008135905061098681610960565b92915050565b6000602082840312156109a2576109a16108b1565b5b60006109b084828501610977565b91505092915050565b6000602082840312156109cf576109ce6108b1565b5b60006109dd848285016108df565b91505092915050565b7f4e487b7100000000000000000000000000000000000000000000000000000000600052602260045260246000fd5b60006002820490506001821680610a2d57607f821691505b602082108103610a4057610a3f6109e6565b5b50919050565b7f6f6e6c79206f776e657200000000000000000000000000000000000000000000600082015250565b6000610a7c600a836107ae565b9150610a8782610a46565b602082019050919050565b60006020820190508181036000830152610aab81610a6f565b9050919050565b7f696e73756666696369656e742062616c616e6365000000000000000000000000600082015250565b6000610ae86014836107ae565b9150610af382610ab2565b602082019050919050565b60006020820190508181036000830152610b1781610adb565b9050919050565b600081905092915050565b50565b6000610b39600083610b1e565b9150610b4482610b29565b600082019050919050565b6000610b5a82610b2c565b9150819050919050565b7f7472616e73666572206661696c65640000000000000000000000000000000000600082015250565b6000610b9a600f836107ae565b9150610ba582610b64565b602082019050919050565b60006020820190508181036000830152610bc981610b8d565b9050919050565b7f73656e6420736f6d6520657468657220746f2070617900000000000000000000600082015250565b6000610c066016836107ae565b9150610c1182610bd0565b602082019050919050565b60006020820190508181036000830152610c3581610bf9565b905091905056fea2646970667358221220d4eb4457f55518e11a3d04ae58d7526bfd440511a8af3479c20639b440c0384e64736f6c63430008120033a264697066735822122006eb83c664ab7912abd1d0d6af87c5cf7cc66f44c3f389fbec02a02e0351858d64736f6c63430008120033",
  "linkReferences": {},
  "deployedLinkReferences": {}
}